{
  "_format": "hh-sol-artifact-1",
  "contractName": "MyContract",
  "sourceName": "contracts/MyContract.sol",
  "abi": [
    {
      "inputs": [],
      "name": "balance",
      "outputs": [
        {
          "internalType": "uint256",
          "name": "",
          "type": "uint256"
        }
      ],
      "stateMutability": "view",
      "type": "function"
    },
    {
      "inputs": [],
      "name": "deposit",
      "outputs": [],
      "stateMutability": "payable",
      "type": "function"
    },
    {
      "inputs": [
        {
          "internalType": "uint256",
          "name": "amount",
          "type": "uint256"
        }
      ],
      "name": "withdraw",
      "outputs": [],
      "stateMutability": "nonpayable",
      "type": "function"
    }
  ],
  "bytecode": "0x60806040526000805534801561001457600080fd5b506101c8806100246000396000f3fe6080604052600436106100345760003560e01c80632e1a7d4d14610039578063b69ef8a81461005b578063d0e30db014610083575b600080fd5b34801561004557600080fd5b50610059610054366004610137565b61008b565b005b34801561006757600080fd5b5061007160005481565b60405190815260200160405180910390f35b61005961011f565b8060005410156100d85760405162461bcd60e51b8152602060048201526014602482015273496e73756666696369656e742062616c616e636560601b604482015260640160405180910390fd5b604051339082156108fc029083906000818181858888f19350505050158015610105573d6000803e3d6000fd5b50806000808282546101179190610166565b909155505050565b34600080828254610130919061017f565b9091555050565b60006020828403121561014957600080fd5b5035919050565b634e487b7160e01b600052601160045260246000fd5b8181038181111561017957610179610150565b92915050565b808201808211156101795761017961015056fea2646970667358221220fce4e480eb22c9debbaff1fdbd7ed000ffdeac2a3af317d0ff0ce5c76c59cc0964736f6c63430008180033",
  "linkReferences": {},
  "deployedLinkReferences": {}
}